:100000000C9412080C9438080C9438080C94380896
:100010000C9438080C9438080C9438080C94380860
:100020000C9438080C9438080C9438080C94380850
:100030000C9438080C94D3200C9438080C9438088D
:100040000C9438080C9438080C9438080C94380830
:100050000C9438080C9438080C9438080C94380820
:100060000C9438080C94362E0C94862E0C94380878
:100070000C9438080C9438080C9438080C94380800
:100080000C9438080C9438080C9438080C943808F0
:100090000C9438080C9438080C9438080C943808E0
:1000A0000C9438080C9438080C9438080C943808D0
:1000B0000C9438080C9438080C9469200C94FB2E8E
:1000C0000C9438080C9438080C9438080C943808B0
:1000D0000C9438080C94F6530C9438080C94380897
:1000E0000C9438080C9438080C9438080C94380890
:1000F0000C9438080C9438080C9438080C94380880
:100100000C9438080C9438080C9438080C9438086F
:100110000C9438080C9438080C9438080C9438085F
:100120000C9438080C9438080C9438080C9438084F
:100130000C949E200C9438080C9438080C943808C1
:100140000C9438080C9438080C9438080C9438082F
:100150000C9438080C9438080C9438080C9438081F
:100160000C9438080C9438080C9438080C9438080F
:100170000C9438080C9438080C9438080C943808FF
:100180000C9438080C9438080C9438080C943808EF
:100190000C9438080C9438080C9438080C943808DF
:1001A0000C9438080C9438080C9438080C943420BB
:1001B0000C942C550C9438080C9438080C9438087E
:1001C0000C9438080C9438080C9438080C943808AF
:1001D0000C9438080C9438080C9438080C9438089F
:1001E0000C9438080C9438080C9438080C9438088F
:1001F0000C943808041A091A0E1A121A161A1A1A26
:10020000231A271A2B1A441A441A441A441A441A55
:10021000441A2F1A5A526652C752CD525752575249
:10022000575257525752575268536D536F537D531D
:100230009C534572726F7220665F6F70656E2069A5
:100240006E205344496E666F2E6D61742E0A004510
:1002500072726F7220665F6C7365656B20696E20C9
:1002600072656D61696E656420646174612E0A0057
:100270004572726F7220665F6C7365656B20696E84
:10028000205344496E666F2E6D61742E0A004572CC
:10029000726F7220696E20665F6C7365656B206992
:1002A0006E207570646174655F66756E63436E740D
:1002B0005F79206C6F6164206E657874206275666A
:1002C0006665720A00726573203D202025750A005C
:1002D0004572726F7220696E20665F72656164207C
:1002E000696E207570646174655F66756E63436ED8
:1002F000745F790A00726573203D202025750A001D
:100300004572726F7220696E20665F6C7365656BF3
:1003100020696E207570646174655F66756E6343F5
:100320006E745F780A00726573203D202025750A7F
:10033000004572726F7220696E20665F726561643B
:1003400020696E20696E207570646174655F6675E2
:100350006E63436E745F780A00726573203D2020DF
:1003600025750A004572726F7220696E707574206F
:10037000666F722066756E6374696F6E2063686164
:100380006E6E656C2E0A004572726F7220665F6F2A
:1003900070656E20696E207365745F76656C5F664C
:1003A000756E6320592E0A004572726F7220665F67
:1003B0007265616420696E207365745F76656C5F39
:1003C00066756E6320592E0A0053657474696E67F2
:1003D0002076656C6F636974792066756E637469E5
:1003E0006F6E20257520666F7220590A0045727263
:1003F0006F7220665F6F70656E20696E2073657422
:100400005F76656C5F66756E6320582E0A004572D4
:10041000726F7220665F7265616420696E20736519
:10042000745F76656C5F66756E6320582E0A0053A4
:10043000657474696E672076656C6F636974792082
:1004400066756E6374696F6E2020257520666F7205
:1004500020580A004572726F7220696E70757420A0
:10046000666F722066756E6374696F6E2063686173
:100470006E6E656C2E0A004572726F7220665F6F39
:1004800070656E20696E207365745F706F735F6650
:10049000756E6320592E0A004572726F7220665F76
:1004A00072656164207365745F706F735F66756EEB
:1004B0006320592E0A0053657474696E6720706F4B
:1004C000736974696F6E2066756E6374696F6E20F0
:1004D000257520666F7220590A004572726F72206E
:1004E000665F6F70656E20696E207365745F706FF4
:1004F000735F66756E6320582E0A004572726F72C4
:1005000020665F72656164207365745F706F735FEE
:1005100066756E6320580A0053657474696E6720AF
:10052000706F736974696F6E2066756E6374696F3E
:100530006E20257520666F7220580A0057726F6E04
:10054000672066756E6374696F6E206368616E6E96
:10055000656C206E756D6265722E0A005365747449
:10056000696E672064656661756C742066756E637C
:1005700074696F6E20666F7220592E0A005365747D
:1005800074696E672064656661756C742066756E4B
:100590006374696F6E20666F7220582E0A002062A5
:1005A000656E63685F74696D65203D20256C7520FC
:1005B0006D732C206672616D655F72617465203D9C
:1005C0002025750A0043616E6E6F742066696E6443
:1005D0002074686520686172647761726520636F5A
:1005E0006E6669672066696C65206F6E2074686549
:1005F00020534420636172642E0A0053756363655F
:10060000737366756C6C79206C6F616420746865B7
:1006100020686172647761726520636F6E666967D6
:100620002066696C6520746F20454550524F4D0A15
:10063000004572726F72206F70656E696E67207010
:1006400061747465726E2066696C650A0045727229
:100650006F722072656164696E6720696E207061D7
:10066000747465726E2066696C650A002020785F7C
:100670006E756D203D2025750A2020795F6E756DA1
:10068000203D2025750A20206E756D5F70616E65B6
:100690006C73203D2025750A202067735F76616C9E
:1006A0007565203D2025750A20726F775F636F6D39
:1006B0007072657373696F6E203D2025750A005353
:1006C000657474696E67207061747465726E20253C
:1006D000753A0A00524553203D2025752C20665F4F
:1006E0006E756D3D2025752C206F666673657420D0
:1006F0003D20256C750A004572726F7220696E206C
:10070000665F6C7365656B20696E206665746368EF
:100710005F646973706C61795F6672616D65210AEF
:1007200000524553203D2025752C20665F6E756D67
:100730003D2025752C20636E743D2025750A0045EB
:1007400072726F7220696E20665F726561642069E3
:100750006E2066657463685F646973706C61795F4D
:100760006672616D65210A0053756363657373205A
:1007700073657420746865206E6577206C6173659D
:1007800072207061747465726E2E0A007365745FF6
:100790006761696E5F626961733A206761696E5F64
:1007A000783D2025642C2020626961735F783D20AC
:1007B00025642C206761696E5F793D2025642C20BB
:1007C000626961735F793D25640A007365745F70C7
:1007D0006F736974696F6E3A20696E6465785F78CB
:1007E0003D2025752C2020696E6465785F793D2059
:1007F00025752C20616E64206672616D655F6E7573
:100800006D3D2025750A0066756E6374696F6E20F4
:100810005920757064617465206672657175656EC6
:100820006379203D2025752E0A0066756E63746914
:100830006F6E2058207570646174652066726571F2
:1008400075656E6379203D2025752E0A004144436D
:100850005F76616C7565203D202025643A0A005260
:100860006573657420636F6E74726F6C6C65722053
:10087000746F20776F726B20696E207468652050EA
:10088000432064756D70696E67206D6F6465210A21
:1008900000526573657420636F6E74726F6C6C6563
:1008A0007220746F20776F726B20696E2074686598
:1008B00020636F6E74726F6C6C6572206D6F64650F
:1008C000210A007570646174653A202564202564EE
:1008D00020256420256420256420256420256420AB
:1008E00025643A0A0043757272656E7420766572EB
:1008F00073696F6E206E756D626572206973202555
:10090000732E0A0043757272656E7420776F726B76
:10091000696E67206D6F6465206973207468652057
:1009200050432064756D70696E67206D6F6465213A
:100930000A0043757272656E7420776F726B696E10
:1009400067206D6F64652069732074686520436F4C
:100950006E74726F6C6C6572206D6F6465210A0035
:100960003F3F3F0A00204E4F5420524541445921F9
:100970000A002057524954452050524F5445435481
:100980004544210A00204552524F52210A00204678
:100990004154204F4B210A00496E697469616C69AA
:1009A0007A696E6720464154204469736B2E2E2E5F
:1009B000003F3F3F0A00534448430A00424C4B0A61
:1009C000005344430A005344320A0053440A004D82
:1009D0004D430A004361726420747970653A2000C7
:1009E0005344206361726420697320696E6974697D
:1009F000616C697A65640A00496E697469616C6941
:100A00007A6174696F6E206661696C656421212169
:100A10000A0053442063617264206973205772692D
:100A200074652050726F746563746564210A0049AF
:100A30006E736572742053442063617264000A4DC2
:100A400061696E20436F6E74726F6C6C65722057B3
:100A50006F726B730A0043616E6E6F742066696E0D
:100A600064207468652070616E656C2025642E0AB0
:100A700000426164206578697420636D642C207283
:100A80006573756C74203D2025750A00646F6E27B0
:100A900074206B6E6F7720686F7720746F206465A9
:100AA000616C207769746820726563747970653D44
:100AB0002564206174206C696E65202564206F6652
:100AC00020656570726F6D2E6865780A000A007681
:100AD0006572696679206D69736D617463682066FB
:100AE0006F7220706167652025640A0076657269FF
:100AF0006679206D69736D6174636820666F72201A
:100B0000706167652025640A00636865636B7375AF
:100B10006D3D3078253032782C20636F6D707574A0
:100B2000656420636865636B73756D3D307825304F
:100B300032780A004552524F523A20636865636B1F
:100B400073756D206D69736D6174636820617420C5
:100B50006C696E65202564206F6620656570726F14
:100B60006D2E6865780A000A766572696679696E25
:100B7000673A20004572726F7220665F6C7365651C
:100B80006B20696E20656570726F6D2E6865782EBA
:100B90000A00646F6E2774206B6E6F7720686F7722
:100BA00020746F206465616C2077697468207265B9
:100BB00063747970653D2564206174206C696E658D
:100BC000202564206F6620656570726F6D2E6865E4
:100BD000782E0A00636865636B73756D3D30782508
:100BE0003032782C20636F6D707574656420636893
:100BF00065636B73756D3D3078253032780A00453A
:100C000052524F523A20636865636B73756D206D65
:100C100069736D61746368206174206C696E65200E
:100C20002564206F6620656570726F6D2E6865782B
:100C30002E0A000A77726974696E673A20202000D4
:100C40004261642070616E656C2072657365742CFE
:100C500020726573756C74203D2025750A006565EA
:100C600070726F6D2070616E656C2025752E0A00A4
:100C70004572726F7220665F6F70656E20696E20BC
:100C8000656570726F6D2E6865782E0A0025530AAF
:100C9000004F4B004449534B5F45525200494E545C
:100CA0005F455252004E4F545F5245414459004EE9
:100CB0004F5F46494C45004E4F5F504154480049F4
:100CC0004E56414C49445F4E414D450044454E49C6
:100CD000454400455849535400494E56414C4944F7
:100CE0005F4F424A4543540057524954455F505262
:100CF0004F54454354454400494E56414C49445F86
:100D00004452495645004E4F545F454E41424C4572
:100D100044004E4F5F46494C455F53595354454D2F
:100D2000004D4B46535F41424F5254454400544995
:100D30004D454F5554000043616E6E6F74206669D7
:100D40006E64207468652070616E656C2025642E69
:100D50000A00426164206578697420636D642C2008
:100D6000726573756C74203D2025750A00646F6E82
:100D70002774206B6E6F7720686F7720746F206404
:100D800065616C2077697468207265637479706539
:100D90003D2564206174206C696E65202564206F98
:100DA000662070616E656C2E6865780A000A0076B0
:100DB0006572696679206D69736D61746368206618
:100DC0006F7220706167652025640A00766572691C
:100DD0006679206D69736D6174636820666F722037
:100DE000706167652025640A00636865636B7375CD
:100DF0006D3D3078253032782C20636F6D707574BE
:100E0000656420636865636B73756D3D307825306C
:100E100032780A004552524F523A20636865636B3C
:100E200073756D206D69736D6174636820617420E2
:100E30006C696E65202564206F662070616E656C3C
:100E40002E6865780A000A766572696679696E6748
:100E50003A20004572726F7220665F6C7365656B35
:100E600020696E2070616E656C2E6865782E0A00B0
:100E7000646F6E2774206B6E6F7720686F772074B5
:100E80006F206465616C2077697468207265637493
:100E90007970653D2564206174206C696E6520253C
:100EA00064206F662070616E656C2E6865780A003C
:100EB000636865636B73756D3D3078253032782CCF
:100EC00020636F6D707574656420636865636B7310
:100ED000756D3D3078253032780A004552524F52B8
:100EE0003A20636865636B73756D206D69736D611E
:100EF000746368206174206C696E65202564206FBE
:100F0000662070616E656C2E6865782E0A000A771F
:100F1000726974696E673A20202000426164207013
:100F2000616E656C2072657365742C2072657375D3
:100F30006C74203D2025750A00666C617368207012
:100F4000616E656C2025752E0A004572726F7220E5
:100F5000665F6F70656E20696E2070616E656C2EC5
:100F60006865782E0A0042616420666C61736820AF
:100F7000726561642C20726573756C74203D202548
:100F8000750A00230042616420666C6173682072F8
:100F90006561642C20726573756C74203D20257525
:100FA0000A00230042616420656570726F6D2077CE
:100FB000726974652C20726573756C74203D2025F0
:100FC000750A00230042616420666C6173682072B8
:100FD0006561642C20726573756C74203D202575E5
:100FE0000A00230042616420666C617368207265A8
:100FF00061642C20726573756C74203D2025750A20
:1010000000230042616420666C6173682077726916
:1010100074652C20726573756C74203D2025750AEB
:101020000023000011241FBECFEFDFE3DEBFCDBFE2
:1010300000E00CBF18BE19BE1ABE1BBE14E2A0E031
:10104000B0E2E6E6FBEB00E00BBF02C007900D92BA
:10105000A43EB107D9F71BBE1CE2A4EEB4E201C066
:101060001D92AD31B107E1F70E949F1D0C94B15D57
:101070000C940000AC0120E030E0F901E757F94D95
:10108000DA01A20FB31F8C9180832F5F3F4F2E3365
:10109000310599F708958091BB279091BC2701965F
:1010A0008093BB279093BC278091BB279091BC274E
:1010B00040912528509126288417950720F01092FA
:1010C000BB271092BC2780917029909171292091A3
:1010D000BB273091BC27BC01649FC001659F900D68
:1010E000749F900D1124820F931F8093E924909395
:1010F000EA248091E524882329F08091E4248F5FFD
:101100008093E4240895809170299091712901962B
:1011100080937029909371292091702930917129C1
:101120008091A9259091AA252817390720F01092BF
:101130007029109271292091702930917129409164
:10114000BB275091BC278091252890912628BC016F
:10115000269FC001279F900D369F900D1124840F6C
:10116000951F8093E9249093EA248091E5248823B5
:1011700029F48091E4248F5F8093E4240895809182
:10118000BB279091BC27892B29F480912528909129
:10119000262804C08091BB279091BC27019780939B
:1011A000BB279093BC2720917029309171294091E1
:1011B000BB275091BC278091252890912628BC01FF
:1011C000269FC001279F900D369F900D1124840FFC
:1011D000951F8093E9249093EA248091E524882345
:1011E00029F08091E4248F5F8093E4240895809116
:1011F000702990917129892B29F48091A9259091CA
:10120000AA2504C08091702990917129019780933B
:101210007029909371292091702930917129409102
:10122000BB275091BC278091252890912628BC018E
:10123000269FC001279F900D369F900D1124840F8B
:10124000951F8093E9249093EA248091E5248823D4
:1012500029F48091E4248F5F8093E4240895813001
:1012600031F09091AF20823009F063C032C080919C
:10127000AF20882321F48DE795E00E94D25610928A
:10128000F7241092F82484E690E0A0E0B0E0809388
:10129000A7209093A820A093A920B093AA20E7E2CA
:1012A000F8E28AE090E08193919328E2EF3EF20722
:1012B000D1F71092EB241092EC241092EF241092AC
:1012C000F0241092F1241092F22481E080939F2068
:1012D0000895992321F48CE595E00E94D25610924E
:1012E000F9241092FA2484E690E0A0E0B0E0809324
:1012F000AB209093AC20A093AD20B093AE20EEEA4B
:10130000F5E28AE090E08193919326E2E637F207D6
:10131000D1F71092ED241092EE241092F324109243
:10132000F4241092F5241092F62481E08093A020FA
:101330000895992321F48CE395E00E94D2560895F4
:10134000AC0120E030E0F901E757F94DDA01A20FD6
:10135000B31F8C9186AF2F5F3F4F2F33310599F725
:101360008091AF20882321F488E697E00E94D2562E
:101370000895A4E3B0E0EFEBF9E00C94515885E058
:1013800098E264EB70E241E00E94BF4C882309F0D0
:10139000B5C080900F2870911028682D8091112879
:1013A0009091122822E330E040E050E00E94135870
:1013B00079018A019924939422E3322E93E0692ED5
:1013C000712C6C0E7D1E2E010894411C511C3AC0DC
:1013D000939CC0011124C2975C01CC24B7FCC0943B
:1013E000DC2C85E098E2B601A5010E94693C8823C7
:1013F00001F580910B2890910C28A0910D28B091B7
:101400000E288A159B05AC05BD0599F485E098E288
:10141000B30142E350E092010E94D64D882389F443
:1014200089819A81C29769F4C30162E30E941A2EEE
:1014300008C08091AF20882321F480E792E00E94C9
:10144000D2569394892D90E0A0E0B0E0E816F9061A
:101450000A071B0708F0BCCF82E3989EC001112445
:10146000C2975C01CC24B7FCC094DC2C85E098E2E8
:10147000B601A5010E94693C882399F580910B284B
:1014800090910C28A0910D28B0910E288A159B05EB
:10149000AC05BD0531F5C801B70122E330E040E0FD
:1014A00050E00E94CD57D82CD61A0D2D10E083E0C5
:1014B000E82EF12CEC0EFD1E85E098E2B701A801A4
:1014C0009E012F5F3F4F0E94D64D882391F4898162
:1014D0009A818017910769F4C7016D2D0E941A2E19
:1014E00008C08091AF20882321F48FE492E00E940D
:1014F000D25685E098E20E94034908C08091AF204F
:10150000882321F482E392E00E94D256E496E1E13E
:101510000C946D58ACECB0E0E0E9FAE00C945C5847
:10152000882391F52091F3243091F4244091F524FF
:101530005091F6248091AB209091AC20A091AD20E9
:10154000B091AE20281739074A075B0768F0109260
:10155000F3241092F4241092F5241092F6241092A1
:10156000ED241092EE241CC08091F3249091F42479
:10157000A091F524B091F624AC0140505E4F10923A
:10158000ED241092EE240EC01092ED241092EE2461
:101590001092F3241092F4241092F5241092F62461
:1015A00040E052E07A0100E010E088E097E2B80104
:1015B000A7010E94693C282F882309F097C08091D9
:1015C0000E2790910F27A0911027B09111278E150B
:1015D0009F05A007B10709F089C02091AB20309189
:1015E000AC204091AD205091AE208091F324909199
:1015F000F424A091F524B091F62479018A01E81A27
:10160000F90A0A0B1B0BD801C701883C9105A105FB
:10161000B10518F088EC90E00CC08091F324909113
:10162000F424A091F524B091F6248901081B190B2C
:10163000C8018093B2209093B3204091B220509182
:10164000B3208E010B5F1F4F88E097E2B8019E0127
:101650002F5F3F4F0E94D64D482F882359F5209188
:10166000B2203091B32089819A818217930711F5B6
:10167000F8016EEA75E220E030E0AE014D5F5F4FA9
:101680000FC08081DA018C93818111968C938B81BC
:101690009C81DB018D939D93BD012F5F3F4F32965F
:1016A0008091B2209091B32096958795281739079D
:1016B00040F339C08091AF208823A9F500D00F9264
:1016C000EDB7FEB7319685EF92E0ADB7BEB7119694
:1016D0008D939C931297428313820E9414570F900C
:1016E0000F900F900F9080ED92E01BC08091AF2083
:1016F0008823C9F400D00F92EDB7FEB7319685EC80
:1017000092E0ADB7BEB711968D939C93129722834A
:1017100013820E9414570F900F900F900F908EE835
:1017200092E00E94D256C453DF4FE6E00C94785802
:10173000ACECB0E0EEE9FBE00C945C58882391F54A
:101740002091EF243091F0244091F1245091F22423
:101750008091A7209091A820A091A920B091AA20C3
:10176000281739074A075B0768F01092EF24109298
:10177000F0241092F1241092F2241092EB24109293
:10178000EC241CC08091EF249091F024A091F124CE
:10179000B091F224AC0140505E4F1092EB241092B5
:1017A000EC240EC01092EB241092EC241092EF2443
:1017B0001092F0241092F1241092F22440E052E0B2
:1017C0007A0100E010E089E795E2B801A7010E94E4
:1017D000693C282F882309F097C080917F2590913C
:1017E0008025A0918125B09182258E159F05A007A7
:1017F000B10709F089C02091A7203091A82040911D
:10180000A9205091AA208091EF249091F024A091DA
:10181000F124B091F22479018A01E81AF90A0A0B3D
:101820001B0BD801C701883C9105A105B10518F033
:1018300088EC90E00CC08091EF249091F024A0916E
:10184000F124B091F2248901081B190BC80180937F
:10185000B0209093B1204091B0205091B1208E01E2
:101860000B5F1F4F89E795E2B8019E012F5F3F4F45
:101870000E94D64D482F882359F52091B0203091F1
:10188000B12089819A818217930711F5F80167E2E7
:1018900078E220E030E0AE014D5F5F4F0FC0808105
:1018A000DA018C93818111968C938B819C81DB0171
:1018B0008D939D93BD012F5F3F4F32968091B02055
:1018C0009091B120969587952817390740F339C034
:1018D0008091AF208823A9F500D00F92EDB7FEB715
:1018E000319689E593E0ADB7BEB711968D939C9381
:1018F0001297428313820E9414570F900F900F90FB
:101900000F9081E393E01BC08091AF208823C9F43E
:1019100000D00F92EDB7FEB7319686E293E0ADB7F7
:10192000BEB711968D939C931297228313820E94C7
:1019300014570F900F900F900F9080E093E00E944B
:10194000D256C453DF4FE6E00C9478588091F924C6
:101950009091FA24892BE9F08091ED249091EE2466
:1019600001968093ED249093EE248091F32490913E
:10197000F424A091F524B091F6240296A11DB11D86
:101980008093F3249093F424A093F524B093F62449
:101990000DC08091ED249091EE24019664E670E0F4
:1019A0000E94EC578093ED249093EE2480910328BD
:1019B0008530E9F4E091ED24F091EE24EE0FFF1F65
:1019C000E255FA4D2081318188E491E0289FB001F1
:1019D000299F700D389F700D11246150704885E06B
:1019E000769567958A95E1F781E00E9444220895F3
:1019F0008091F7249091F824892BE9F08091EB24D1
:101A00009091EC2401968093EB249093EC248091A8
:101A1000EF249091F024A091F124B091F224029649
:101A2000A11DB11D8093EF249093F024A093F12485
:101A3000B093F2240DC08091EB249091EC24019698
:101A400064E670E00E94EC578093EB249093EC24C2
:101A50008091B9278530E9F4E091EB24F091EC24F2
:101A6000EE0FFF1FE95DF74D2081318188E491E0A1
:101A7000289FB001299F700D389F700D112461506F
:101A8000704825E0769567952A95E1F780E00E94F9
:101A900044220895AEE0B2E0E0E5FDE00C945E582B
:101AA000082F162F6A3080F400D000D0EDB7FEB7B3
:101AB0003196CE010396ADB7BEB711968D939C9328
:101AC000129780E090E21FC0CE010396643670F456
:101AD00000D000D0EDB7FEB73196ADB7BEB71196C6
:101AE0008D939C9312978EE090E20DC000D000D0B1
:101AF000EDB7FEB73196ADB7BEB711968D939C93F7
:101B000012978BE190E282839383148315820E9463
:101B1000B05A8DB79EB706968DBF9EBF013021F09B
:101B2000023009F0CCC065C089E795E20E94034904
:101B300089E795E2BE016D5F7F4F41E00E94BF4C97
:101B4000882309F048C089E795E2BE01615F7F4FB5
:101B500040E052E09E012F5F3F4F0E94D64D882308
:101B600099F589819A818050924071F58F85809393
:101B7000A72088898093A82089898093A9208A89B1
:101B80008093AA201093F7241092F82400939C20AD
:101B90001092E4248091AF20882329F500D00F9281
:101BA000EDB7FEB731968FE294E0ADB7BEB71196B0
:101BB0008D939C931297128313820E9414570F9057
:101BC0000F900F900F900FC08091AF20882359F491
:101BD0008EE094E006C08091AF20882321F48DEE42
:101BE00093E00E94D25610929F2081E00E94980BB1
:101BF0006EC088E097E20E94034988E097E2BE0148
:101C00006D5F7F4F41E00E94BF4C882309F049C0BF
:101C100088E097E2BE01615F7F4F40E052E09E01A5
:101C20002F5F3F4F0E94D64D8823A1F589819A816D
:101C30008050924079F58F858093AB20888980937E
:101C4000AC2089898093AD208A898093AE2010933F
:101C5000F9241092FA2481E080939C201092E424CD
:101C60008091AF20882329F500D00F92EDB7FEB701
:101C7000319689EC93E0ADB7BEB711968D939C93E6
:101C80001297128313820E9414570F900F900F9097
:101C90000F900FC08091AF20882359F488EA93E019
:101CA00006C08091AF20882321F487E893E00E944A
:101CB000D2561092A02081E00E948A0A08C080912A
:101CC000AF20882321F484E693E00E94D256C25FBD
:101CD000DD4FE4E00C947A58AEE0B2E0E2E7FEE0DB
:101CE0000C945E58082F162F6A3080F400D000D074
:101CF000EDB7FEB73196CE010396ADB7BEB71196DC
:101D00008D939C93129787E290E21FC0CE010396B9
:101D1000643670F400D000D0EDB7FEB73196ADB7A1
:101D2000BEB711968D939C93129785E390E20DC0F8
:101D300000D000D0EDB7FEB73196ADB7BEB7119663
:101D40008D939C93129782E490E282839383148311
:101D500015820E94B05A8DB79EB706968DBF9EBF62
:101D6000013021F0023009F0CCC065C089E795E26E
:101D70000E94034989E795E2BE016D5F7F4F41E014
:101D80000E94BF4C882309F048C089E795E2BE0154
:101D9000615F7F4F40E052E09E012F5F3F4F0E9406
:101DA000D64D882399F589819A818050924071F5AA
:101DB0008F858093A72088898093A8208989809324
:101DC000A9208A898093AA201093F7241092F824DE
:101DD00000939C201092E4248091AF20882329F561
:101DE00000D00F92EDB7FEB7319688E195E0ADB720
:101DF000BEB711968D939C931297128313820E9403
:101E000014570F900F900F900F900FC08091AF203C
:101E1000882359F48BEF94E006C08091AF2088238B
:101E200021F48AED94E00E94D25610929F2081E026
:101E30000E94980B6EC088E097E20E94034988E0F8
:101E400097E2BE016D5F7F4F41E00E94BF4C882347
:101E500009F049C088E097E2BE01615F7F4F40E032
:101E600052E09E012F5F3F4F0E94D64D8823A1F57F
:101E700089819A818050924079F58F858093AB203B
:101E800088898093AC2089898093AD208A8980934A
:101E9000AE201093F9241092FA2481E080939C20C4
:101EA0001092E4248091AF20882329F500D00F926E
:101EB000EDB7FEB7319686EB94E0ADB7BEB711969D
:101EC0008D939C931297128313820E9414570F9044
:101ED0000F900F900F900FC08091AF20882359F47E
:101EE00088E994E006C08091AF20882321F487E739
:101EF00094E00E94D2561092A02081E00E948A0AAB
:101F000008C08091AF20882321F484E594E00E94EA
:101F1000D256C25FDD4FE4E00C947A581F93CF9302
:101F2000DF93162FEA01882349F5809185268823BF
:101F3000E1F788E796E260E0AE01212F0E9454307D
:101F400080919F298823E1F782E999E260E0AE0160
:101F5000212F0E945430809135278823E1F788E2B1
:101F600097E260E0AE01212F0E9454308091A725B6
:101F70008823E1F78AE995E260E022C0E82FF0E0EB
:101F8000DF01A85CB84DAC91E151F74D6081AA2307
:101F9000D9F0A33051F0A43059F0A23019F4A2E9DD
:101FA000B9E208C0A8E7B6E205C0A8E2B7E202C0FD
:101FB000AAE9B5E21D968C911D978823D9F7CD012A
:101FC000AE01212F0E945430DF91CF911F910895CF
:101FD000FC018081803119F08131A9F407C0818131
:101FE000738160E09281690F711D09C0738160E0A7
:101FF0008281680F711D8181709561957F4F81503D
:102000000E944422089580E068E04CED50E20E9476
:102010008E0F0895A2E0B0E0E0E1F0E10C945D588D
:102020008C01FC018081803209F4A5C0813238F432
:10203000803109F48FC0853109F0F0C093C080333E
:1020400009F4C3C08F3F21F0853209F0E7C0A0C07A
:10205000F801F180809185268823E1F788E796E2F0
:102060006F2D4CEF50E222E00E94543080919F2966
:102070008823E1F782E999E26F2D4CEF50E222E0EC
:102080000E945430809135278823E1F788E297E257
:102090006F2D4CEF50E222E00E9454308091A72532
:1020A0008823E1F78AE995E26F2D4CEF50E222E0B8
:1020B0000E94543080EF95E520E233E0F90131973A
:1020C000F1F70197D9F78FEF8983F8019281809119
:1020D00085268823E1F79A8388E796E26F2DAE0183
:1020E0004F5F5F4F22E00E94543080919F298823E8
:1020F000E1F782E999E26F2DAE014F5F5F4F22E079
:102100000E945430809135278823E1F788E297E2D6
:102110006F2DAE014F5F5F4F22E00E9454308091DF
:10212000A7258823E1F78AE995E26F2DAE014F5F7D
:102130005F4F22E00E94543084EF91E020E233E0D0
:10214000F9013197F1F70197D9F780E062E04CEFA0
:1021500050E268C0F80181818093B9278281809321
:10216000032862C0F8016281662349F0F801818189
:102170000E946C0E59C0F8016281662321F48181AE
:102180000E942F0951C0F80181810E944A0D4CC064
:10219000F801928180E021818C01020F111D9801CC
:1021A00040E050E062E17AE780E090E00E9435583C
:1021B0002093A1203093A2208091AF208823A1F505
:1021C00000D00F928AE298E01CC0F801928180E072
:1021D00021818C01020F111D980140E050E062E165
:1021E0007AE780E090E00E9435582093A320309356
:1021F000A4208091AF208823B9F400D00F9287E00B
:1022000098E0EDB7FEB781839283038314830E9425
:1022100014570F900F900F900F9006C080E068E069
:1022200044ED50E20E948E0F2296E5E00C9479581E
:10223000A2E8B0E0EEE1F1E10C945A58282F8A3080
:1022400080F400D000D0EDB7FEB731968BEF94E26A
:10225000ADB7BEB711968D939C9312978EE490E222
:102260001FC08BEF94E2243670F400D000D0EDB79D
:10227000FEB73196ADB7BEB711968D939C9312976A
:102280008CE590E20DC000D000D0EDB7FEB73196DE
:10229000ADB7BEB711968D939C93129789E690E2E5
:1022A00082839383248315820E94B05AEDB7FEB7D0
:1022B0003696EDBFFEBF85E098E26BEF74E241E039
:1022C0000E94BF4C8823C9F553E0C52ED12CCC0EFB
:1022D000DD1E85E098E2B60140E850E09E012F5FE8
:1022E0003F4F0E94D64D882309F589819A81803815
:1022F0009105E1F449E3E42E47E2F42E00E010E01A
:10230000F601E00FF11F6081D7016D937D010F5F32
:102310001F4FC8018F5F9F4F0E94EB5C0038110573
:1023200079F781E090E060E00E94EB5C85E098E264
:102330000E9403498BEF95E002C085EC95E00E9476
:10234000D256CE57DF4FE8E00C94765883E00E94D7
:10235000D3210895EF92FF920F93CF93DF93809153
:10236000B927823009F48DC0833030F4882359F0C6
:10237000813009F068C132C0833009F4D1C08430A3
:1023800009F061C116C1E091EB24F091EC24EE0F4D
:10239000FF1FE95DF74D20813181220F331F20930C
:1023A00087263093882680910428992787FD909569
:1023B000AC01249FC001259F900D349F900D1124E6
:1023C0006AE070E00E940058CB012091992545E019
:1023D000240290011124820F931F9CC080E00E9470
:1023E000E42164E070E00E940058CB01880F991F3F
:1023F000880F991F40918726509188269A01220FB5
:10240000331F240F351F220F331F820F931F6AE0E3
:1024100070E00E9400589B01609387267093882685
:1024200080910428992787FD9095BC01269FC001C3
:10243000279F900D369F900D11246AE070E00E9456
:102440000058CB012091992545E0240290011124E8
:10245000820F931F62E070E00E9400589B017B0195
:1024600071E02130370724F0E12CF1E0FF2EEDC0C0
:102470008FEF203038070CF0E8C0E12CEFEFFE2E94
:10248000E4C080E00E94E42164E070E00E94005813
:10249000CB01880F991F880F991F40918726509173
:1024A00088269A01220F331F240F351F220F331F56
:1024B000820F931F6AE070E00E94005860938726A5
:1024C00070938826E091EB24F091EC24EE0FFF1F2F
:1024D000E95DF74D20813181220F331F80919925CD
:1024E00045E08402C0011124280F391F809104287F
:1024F000992787FD9095AC01649FC001659F900D61
:10250000749F900D11246AE070E00E940058C90188
:10251000860F971F62E070E00E9400587B0195C013
:1025200082E00E94E42197FF02C080E090E0609189
:102530000428772767FD70950E940058809199259F
:10254000992787FD9095860F971F8093BB279093BF
:10255000BC278091BB279091BC27409125285091A2
:1025600026288417950740F0415050404093BB27E0
:102570005093BC274F5F5F4F8091BB279091BC2742
:10258000892B21F41092BB271092BC2780917029CF
:10259000909171292091BB273091BC27BC01649F89
:1025A000C001659F900D749F900D1124820F931FA1
:1025B00046C0E091EB24F091EC24EE0FFF1FE95DA3
:1025C000F74D0190F081E02D80910627909107272B
:1025D000E80FF91F2091252830912628F7FD09C022
:1025E000CF01B9010E94EC578093BB279093BC2781
:1025F00010C0882799278E1B9F0BB9010E94EC57AA
:1026000021503040A901481B590B4093BB275093E0
:10261000BC2720917029309171294091BB2750919E
:10262000BC278091252890912628BC01269FC001B7
:10263000279F900D369F900D1124840F951F809336
:10264000E9249093EA24EE24FF2480910328823029
:1026500009F48BC0833030F4882359F0813009F0BD
:1026600053C132C0833009F4D0C0843009F04CC16A
:1026700001C1E091ED24F091EE24EE0FFF1FE25531
:10268000FA4D20813181220F331F2093AB253093E7
:10269000AC258091BD27992787FD9095AC01249F9B
:1026A000C001259F900D349F900D11246AE070E0C9
:1026B0000E940058CB012091D42B45E024029001C8
:1026C0001124820F931F9BC081E00E94E42164E0EB
:1026D00070E00E940058CB01880F991F880F991F46
:1026E0004091AB255091AC259A01220F331F240F46
:1026F000351F220F331F820F931F6AE070E00E9484
:1027000000589B016093AB257093AC258091BD2749
:10271000992787FD9095BC01269FC001279F900DAA
:10272000369F900D11246AE070E00E940058CB01A2
:102730002091D42B45E0240290011124820F931F95
:1027400062E070E00E9400589B01EB0171E02130D3
:1027500037071CF0C0E0D1E0D9C08FEF2030380738
:102760000CF0D4C0C0E0DFEFD1C081E00E94E421D2
:1027700064E070E00E940058CB01880F991F880F19
:10278000991F4091AB255091AC259A01220F331F20
:10279000240F351F220F331F820F931F6AE070E052
:1027A0000E940058DB016093AB257093AC25E0914B
:1027B000ED24F091EE24EE0FFF1FE255FA4D20813B
:1027C0003181220F331F8091D42B45E08402C00158
:1027D0001124280F391F8091BD27992787FD9095D7
:1027E000AC01A49FC001A59F900DB49F900D112432
:1027F0006AE070E00E940058C901860F971F62E0EE
:1028000070E00E940058EB0181C083E00E94E42147
:1028100097FF02C080E090E06091BD27772767FDB9
:1028200070950E9400588091D42B992787FD909530
:10283000860F971F8093702990937129809170293A
:10284000909171292091A9253091AA25821793078B
:1028500030F02150304020937029309371298091BD
:10286000702990917129892BA9F5109270291092E5
:10287000712930C0E091ED24F091EE24EE0FFF1F9E
:10288000E255FA4D0190F081E02D809176269091ED
:102890007726E80FF91F2091A9253091AA25F7FD89
:1028A00009C0CF01B9010E94EC5780937029909321
:1028B000712910C0882799278E1B9F0BB9010E9490
:1028C000EC5721503040A901481B590B4093702907
:1028D0005093712920917029309171294091BB2723
:1028E0005091BC278091252890912628BC01269FD5
:1028F000C001279F900D369F900D1124840F951FC6
:102900008093E9249093EA24C0E0D0E080919C2059
:10291000813059F11E141F0474F49701442737FDC8
:102920004095542F62E17AE780E090E00E941358CE
:102930008BE498E013C0E114F104C9F02227332797
:102940002E193F09442737FD4095542F62E17AE75D
:1029500080E090E00E9413588FEB98E0BA01A90143
:1029600022E001E00E94A22F0EC0C0E0D0E08FEB79
:1029700098E04EE450E060E070E022E000E00E9469
:10298000A22FEE24FF241C161D0674F49E0144277A
:1029900037FD4095542F62E17AE780E090E00E9495
:1029A000135883E898E012C02097A9F02227332714
:1029B0002C1B3D0B442737FD4095542F62E17AE7ED
:1029C00080E090E00E94135887EF98E0BA01A901D7
:1029D00023E001E008C087EF98E04EE450E060E0BB
:1029E00070E023E000E00E94A22F1092E524EC1694
:1029F000FD061CF081E08093E524DF91CF910F91DB
:102A0000FF90EF900895A1E0B0E0E9E0F5E10C94CB
:102A100058585C01FC01E080F180C280D380848141
:102A20008093E82495819093372786818093AD2504
:102A3000882319F09093BA2709C0892F90E023E0EA
:102A4000880F991F2A95E1F78093BA271092E42402
:102A500081E061E00E94B22191E007E010E00FC048
:102A6000A501400F511F892F6091BA2799830E94B9
:102A70008E0F8091BA27080F111D99819F5F809159
:102A8000E824891768F77F2D60E06E0D711D80E0E6
:102A90000E9444227D2D60E06C0D711D81E00E943A
:102AA000442281E060E00E94B2212196EAE00C9489
:102AB00074584F925F926F927F929F92AF92BF92A3
:102AC000CF92DF92EF92FF920F931F93DF93CF93FA
:102AD000CDB7DEB7A697CDBFDEBF5C014DB65EB603
:102AE0008FB781E061E00E94B2219091BA27809176
:102AF000E824989F600111248DB79EB78C199D0919
:102B00008DBF9EBF6DB67EB60894611C711C6D2D85
:102B100066956F5F70E080E090E0950140E050E0E6
:102B20000E94CD577B018C010894E11CF11C011D12
:102B3000111D99E0EE0CFF1C001F111F9A95D1F793
:102B400082E799E2B801A7010E94693C982E882388
:102B500009F060C18091782990917929A0917A2912
:102B6000B0917B298E159F05A007B10709F052C1CE
:102B700082E799E2B301A6019E012F5F3F4F0E94B9
:102B8000D64D182F882309F020C189819A818C1590
:102B90009D0509F01AC18091E424823018F081E08B
:102BA0000E9440211092E42411E0EE24FF2487E0EB
:102BB000C82ED12CCC0EDD1E03E0A02EB12CAC0E05
:102BC000BD1EF7C08D9181938E2F8C198917D0F37C
:102BD000E90EF11C8091A129813009F0E3C0983001
:102BE000E9F49F8188859817C9F449858A85481733
:102BF000A9F43B858C85381789F42D858E85281797
:102C000069F4941759F4931749F4921739F4812F02
:102C100061E0A6010E948E0FE1E001C0E0E080913A
:102C2000BA27883109F04EC06F818885681709F08E
:102C300049C039858A85381709F044C02B858C85B1
:102C4000281709F03FC09D858E859817D9F5631721
:102C5000C9F56217B9F56917A9F54F85888948172D
:102C600089F539898A89381769F52B898C8928175C
:102C700049F59D898E89981729F5431719F542174B
:102C800009F54917F9F49F89888D9817D9F4598D5A
:102C90008A8D5817B9F43B8D8C8D381799F42D8D8A
:102CA0008E8D281779F4951769F4931759F49217B4
:102CB00049F46B834C839D83812F63E0A5010E94BF
:102CC0008E0FE1E08091BA27803209F069C07F81E0
:102CD0008885781709F064C039858A85381709F026
:102CE0005FC02B858C85281709F05AC09D858E857D
:102CF000981709F055C0731709F052C0721709F000
:102D00004FC0791709F04CC06F858889681709F0A2
:102D100047C039898A89381709F042C02B898C89C4
:102D20002817F1F59D898E899817D1F56317C1F59C
:102D30006217B1F56917A1F54F89888D481781F59C
:102D4000398D8A8D381761F52B8D8C8D281741F5BB
:102D50009D8D8E8D981721F5431711F5421701F5BA
:102D60004917F1F49F8D88A19817D1F459A18AA130
:102D70005817B1F43BA18CA1381791F42DA18EA165
:102D8000281771F4951761F4931751F4921741F4D1
:102D90007B836C834D839E83812F64E0A50106C0F5
:102DA000EE2331F4812F6091BA27A6010E948E0F85
:102DB0001F5F8091E824811708F451C09091BA27D1
:102DC000D301AE0DBF1DF601FFCE8091AF20882349
:102DD00009F045C08FE397E00E94D256ADB7BEB769
:102DE0001897ADBFBEBFEDB7FEB7319681E297E051
:102DF00011968D939C93129712831382A482B582AD
:102E000089819A81868397830E9414578DB79EB7D4
:102E1000089623C08091AF20882309F587EF96E0BC
:102E20000E94D256ADB7BEB71A97ADBFBEBFEDB7C1
:102E3000FEB7319684ED96E011968D939C93129790
:102E400092821382A482B582E682F782008711877C
:102E50000E9414578DB79EB70A968DBF9EBF809172
:102E6000B9278530E9F06091BB277091BC2780E0DD
:102E700090E02FEF3FEF40E050E00E94CD572091CF
:102E800025283091262840E050E00E94355815E072
:102E9000369527951A95E1F780E0B9010E94442202
:102EA000809103288530E1F060917029709171293B
:102EB00080E090E02FEF3FEF40E050E00E94CD57E0
:102EC0002091A9253091AA2540E050E00E94355874
:102ED000B5E036952795BA95E1F781E0B9011BC0B9
:102EE000E091ED24F091EE24EE0FFF1FE255FA4D34
:102EF0002081318188E491E0289FB001299F700DE5
:102F0000389F700D112461507048E5E07695679503
:102F1000EA95E1F781E00E9444228091E624813025
:102F200059F58091BB279091BC274091BB275091C8
:102F3000BC2763E0969587956A95E1F790E0FC01E0
:102F4000E757F94D208130E053E0880F991F5A95DB
:102F5000E1F7481B87E090E0841B910902C035959A
:102F600027958A95E2F720FD03C080E060E002C06B
:102F700080E061E00E94B22181E060E00E94B22125
:102F80004DBE5EBEA696CDBFDEBFCF91DF911F9135
:102F90000F91FF90EF90DF90CF90BF90AF909F90F8
:102FA0007F906F905F904F900895A0E0B0E0EBEDC0
:102FB000F7E10C94585881E080939C202091A9253A
:102FC0003091AA258091252890912628289F50018C
:102FD000299FB00C389FB00C11240E94A255C0E06C
:102FE000D0E004C0CE010E9459152196CA15DB0518
:102FF000C8F30E94B7557B018C018DB79EB7089727
:103000008DBF9EBFCDB6DEB60894C11CD11C8EE923
:1030100095E0EDB7FEB781839283F601E282F382F9
:1030200004831583B50180E090E028EE33E040E0B2
:1030300050E00E94CD57A80197010E941358F60155
:10304000268337830E9414578DB79EB708968DBF8D
:103050009EBFCDB7DEB7EAE00C947458A2E0B2E0B0
:10306000E4E3F8E10C945F58182F8A3080F400D024
:1030700000D0EDB7FEB7319687E095E2ADB7BEB7A9
:1030800011968D939C93129785E790E21FC087E07D
:1030900095E2143670F400D000D0EDB7FEB731964B
:1030A000ADB7BEB711968D939C93129783E890E2CB
:1030B0000DC000D000D0EDB7FEB73196ADB7BEB7AA
:1030C00011968D939C93129780E990E2828393836B
:1030D000148315820E94B05A8DB79EB706968DBF95
:1030E0009EBF82E799E20E94034982E799E267E086
:1030F00075E241E00E94BF4C882309F0A7C082E737
:1031000099E2BE016D5F7F4F40E052E09E012F5F6C
:103110003F4F0E94D64D882309F091C089819A8142
:103120008050924009F08BC08B81809325288C8140
:10313000809326288D818093A9258E818093AA254E
:103140008F818093E824988590933727892F8B501F
:10315000843048F49A509093372781E08093AD25CE
:103160009093BA270BC01092AD25892F90E023E0F1
:10317000880F991F2A95E1F78093BA27109270293A
:103180001092712980917029909171298093BB27A9
:103190009093BC271092E9241092EA2481E0809356
:1031A0009C201092E4248091AF20882309F040C035
:1031B00000D00F92EDB7FEB731968FEB96E0ADB72A
:1031C000BEB711968D939C931297128313820E941F
:1031D00014578DB79EB708978DBF9EBFEDB7FEB74A
:1031E00031968CE696E0ADB7BEB711968D939C9361
:1031F000129780912528909126288283938380912D
:10320000A9259091AA25848395838091E8248683BB
:10321000178280913727808711868091AD2582871C
:1032200013860E9414578DB79EB70C968DBF9EBF14
:103230008091E9249091EA240E9459150FC0809151
:10324000AF20882359F48DE496E006C08091AF202A
:10325000882321F481E396E00E94D256CE5FDD4FB1
:10326000E3E00C947B58FC018081803721F08137AA
:1032700009F0B5C073C0928180E02181820F911D59
:103280008093BB279093BC27948180E02381820F99
:10329000911D80937029909371298091BB27909103
:1032A000BC278093062790930727809170299091DF
:1032B00071298093762690937726209170293091FA
:1032C00071294091BB275091BC278091252890916E
:1032D0002628BC01269FC001279F900D369F900D88
:1032E0001124840F951F8093E9249093EA2410926F
:1032F000E4248091AF20882351F52091BB273091A1
:10330000BC2740917029509171296091E9247091F6
:10331000EA248DB79EB708978DBF9EBFEDB7FEB765
:1033200031968BEC97E0ADB7BEB711968D939C9319
:1033300012972283338344835583668377830E9465
:1033400014576DB77EB7685F7F4F6DBF7EBF8091AA
:10335000E9249091EA240E945915089551815093CF
:10336000042842814093992533813093BD272481DD
:103370002093D42B8091AF208823B9F58DB79EB7C9
:103380000A978DBF9EBFEDB7FEB731968CE897E0E8
:10339000ADB7BEB711968D939C931297852F992741
:1033A00087FD909582839383842F992787FD90953D
:1033B00084839583832F992787FD909586839783B0
:1033C000822F992787FD9095808791870E941457B7
:1033D0006DB77EB7665F7F4F6DBF7EBF089580E09B
:1033E00068E044EE50E20E948E0F0895FC012181B6
:1033F000808190E0FC013197E031F10508F044C094
:10340000E650FF4F0C948758822F62E04CEF50E259
:103410003FC0822F62E04EEF50E23AC0822F0E94FE
:103420002E180895822F0E94C6220895822F0E948E
:103430006A220895822F90E0880F991F8093A5201B
:103440009093A6200895822F0E9424290895822F08
:103450000E9432260895822F0E9418110895822F0B
:1034600081500E94E42100D00F922DE438E0EDB7A6
:10347000FEB721833283838394830E9414570F9075
:103480000F900F900F90089580E068E04CEC50E2B0
:103490000E948E0F0895A2E0B0E0E1E5FAE10C94FD
:1034A0005A58FC01E081E53409F41DC2E63408F005
:1034B00058C0E93109F4CFC2EA3140F5E33109F4EB
:1034C0008EC2E43180F4E03109F47AC2E13120F4B3
:1034D000EE2309F4EAC129C3E13109F475C2E231EE
:1034E00009F023C378C2E63109F496C2E73138F413
:1034F000E43109F477C2E53109F017C376C2E73148
:1035000009F4A2C2E83109F010C3A2C2E53309F4FC
:1035100082C1E63398F4E23209F4F5C2E33238F4BA
:10352000E03209F473C0E13209F0FFC2DCC2E532D7
:1035300009F400C1E03309F0F8C2B7C0E23409F47D
:10354000C3C1E33438F4E03409F4B4C1E13409F020
:10355000ECC2B5C1E33409F4BCC1E43409F0E5C2FE
:10356000BDC1E53909F4F5C1E63928F5E03709F4BC
:10357000D4C1E13768F4E73409F4BFC1E73408F493
:10358000B7C1E03509F4C3C1E03609F0CEC2C2C10B
:10359000E23909F4CFC1E33938F4E03909F4C0C1A4
:1035A000E13909F0C2C2C1C1E33909F4C8C1E43943
:1035B00009F0BBC2C9C1EB3909F4E9C1EC3998F48F
:1035C000E83909F4D5C1E93938F4E63909F4C6C156
:1035D000E73909F0AAC2C7C1E93909F4CEC1EA390D
:1035E00009F0A3C2CFC1EE3909F4E0C1EF3938F4D4
:1035F000EC3909F4D1C1ED3909F097C2D2C1EF39E4
:1036000009F4D9C1EF3F09F090C27CC11092EF24B8
:103610001092F0241092F1241092F2241092F324CC
:103620001092F4241092F5241092F6241092EB24B8
:103630001092EC241092ED241092EE2410929C2013
:103640001092E4248AEA91E14EE450E060E070E0F8
:1036500021E001E00E947C2F8BE498E04EE450E0F2
:1036600060E070E022E000E00E947C2F83E898E0B8
:103670004EE450E060E070E023E00E947C2F409137
:10368000A1205091A22060E070E088EF9CE024E04F
:1036900001E00E947C2F4091A3205091A42060E083
:1036A00070E086EA9CE025E0B3C081E080939C2036
:1036B0008AEA91E14EE450E060E070E021E000E051
:1036C0000E947C2F8BE498E04EE450E060E070E0D4
:1036D00022E00E947C2F83E898E04EE450E060E016
:1036E00070E023E00E947C2F4091A1205091A22005
:1036F00060E070E088EF9CE024E00E947C2F409125
:10370000A3205091A42060E070E086EA9CE025E0D0
:103710000E947C2F80919F20882319F481E00E94D1
:10372000980B8091A020882309F005C281E00E94B7
:103730008A0A01C28091A7209091A820A091A92077
:10374000B091AA208093EF249093F024A093F124C9
:10375000B093F2248091AB209091AC20A091AD2049
:10376000B091AE208093F3249093F424A093F52499
:10377000B093F6241092EB241092EC241092ED24D6
:103780001092EE2410929C201092E4248AEA91E197
:103790004EE450E060E070E021E001E00E947C2F08
:1037A0008BE498E04EE450E060E070E022E000E05E
:1037B0000E947C2F83E898E04EE450E060E070E0E7
:1037C00023E00E947C2F4091A1205091A22060E034
:1037D00070E088EF9CE024E001E00E947C2F4091A3
:1037E000A3205091A42060E070E086EA9CE025E0F0
:1037F0000E947C2F6091A5207091A62082E19AE71B
:103800000E94EC57AB0160E070E086EA91E120E0B5
:103810000E947C2F90C181E080939C208AEA91E1F4
:103820004EE450E060E070E021E000E00E947C2F78
:103830008BE498E04EE450E060E070E022E00E940B
:103840007C2F83E898E04EE450E060E070E023E0F5
:103850000E947C2F4091A1205091A22060E070E056
:1038600088EF9CE024E00E947C2F4091A32050919F
:10387000A42060E070E086EA9CE025E00E947C2FB6
:103880002091A5203091A62040E050E062E17AE747
:1038900080E090E00E94355886EA91E1BA01A901E2
:1038A00020E00E947C2F83E092C080E068E043E14A
:1038B00055E23FC180E068E140E051E23AC180E07A
:1038C00068E148E151E235C180E068E140E351E25E
:1038D00030C180E068E148E451E22BC180E068E15A
:1038E00040E651E226C180E068E148E751E221C1AB
:1038F00080E068E140E951E21CC180E068E148EA0B
:1039000051E217C180E068E040EC51E212C10E9430
:10391000532111C10E94AE220EC10E94D5170BC1C6
:1039200080E060E248EC51E204C180E060E248EEF1
:1039300051E2FFC080E060E248E052E2FAC080E07D
:1039400060E248E252E2F5C080E060E248E452E220
:10395000F0C080E060E248E652E2EBC080E060E266
:1039600048E852E2E6C080E060E248EA52E2E1C0A4
:1039700080E060E248EC52E2DCC080E060E248EEC9
:1039800052E2D7C080E060E248E053E2D2C080E07B
:1039900060E248E253E2CDC080E060E248E453E2F6
:1039A000C8C080E060E248E653E2C3C080E060E265
:1039B00048E853E2BEC080E060E248EA53E2B9C0A2
:1039C00081E08093E624B7C01092E62480E060E0B6
:1039D0000E94B221B0C081E08093A129ACC01092B6
:1039E000A129A9C00E94B909A6C000D00F9285EEF6
:1039F00098E0ADB7BEB711968D939C93129788EC63
:103A000093E213968D939C9314970E9414570F90F2
:103A10000F900F900F908FC049E3E42E47E2F42EF1
:103A200001E01EEF6E010894C11CD11C1983F7013F
:103A300081917F018A83802F62E0A6010E948E0F10
:103A40000F5F013899F777C081E08093AF2073C092
:103A50001092AF2070C08DB79EB742978DBF9EBFAA
:103A6000EDB7FEB7319683EC98E0ADB7BEB71196CF
:103A70008D939C93129780910428992787FD9095A8
:103A80008283938380919925992787FD90958483DC
:103A9000958380910627909107278683978380914D
:103AA000B927808711868091BD27992787FD90953A
:103AB000828793878091D42B992787FD909584875F
:103AC0009587809176269091772686879787809133
:103AD0000328808B118A0E941457EDB7FEB77296A7
:103AE000EDBFFEBF28C080E090E06FEF0E94EB5C6E
:103AF0000F920F9281E998E0ADB7BEB711968D9302
:103B00009C9312970DC080E090E060E00E94EB5C17
:103B10000F920F928FE598E0EDB7FEB78183928305
:103B20000E9414570F900F9006C080E068E044ECAC
:103B300050E20E948E0F2296E8E00C947658A6E49C
:103B4000B6E0E5EAFDE10C945A5880E090E00E946E
:103B5000DB5CE82E88E796E26E2D0E94203182E938
:103B600099E26E2D0E94203188E297E26E2D0E942C
:103B700020318AE995E26E2D0E94203188E796E295
:103B800060E874E040E450E023E20E94D12F82E933
:103B900099E260E974E040E450E023E20E94D12F12
:103BA00088E297E260EA74E040E450E023E20E9499
:103BB000D12F8AE995E260EB74E040E450E023E223
:103BC0000E94D12F8E2D0E94C82E0E942A2C81E99E
:103BD0009DE2809377259093782580E090E02AE01D
:103BE00030E0FC01E255FA4D20833183FC01E95DB0
:103BF000F74D208331830296883C910591F7E9E8DF
:103C0000F6E220E030E04FEF2330310520F0C9012B
:103C10000697039710F4408301C010822F5F3F4F37
:103C200031962D37310581F7109270291092712944
:103C300080917029909171298093BB279093BC2724
:103C40008091BB279091BC2780937626909377260E
:103C500080930627909307271092D42B10929925D2
:103C60001092BD2710920428109203281092B927B1
:103C70001092AB251092AC251092872610928826C0
:103C800081E0809337271092AD251092A12981E021
:103C900090E00E94DB5C8F3FD9F4198224E014C0CD
:103CA000E82FF0E0E85CF84D982F9370908388231C
:103CB00019F0992309F420838981E82FF0E0E1517C
:103CC000F74D80838F5F89838981813848F317C0DE
:103CD000198211C00F2D10E0C8018F5F9F4F0E9405
:103CE000DB5CF801E85CF84D80830151174DF80169
:103CF000F082F394F982F980F0E8FF1558F78EE32B
:103D00009AE00E94D25681E061E00E941D2101E00C
:103D100070E2C72E73E0D72E3AC080E00E94335184
:103D2000082F81FF0DC08FE29AE00E94D2560E94B8
:103D3000BD2D04C080E00E943351082F01FDFACF51
:103D400002FF04C082E19AE00E94D256198210C09C
:103D500080E00E942954082F80FF0DC089818F5F69
:103D6000898384EF91E0F6013197F1F70197D9F754
:103D70008981843068F300FF0AC088EF99E00E94CF
:103D8000D25680E00E943351082F81FFFACF00FD08
:103D9000C4CF80EE99E00E94D25680E06AE0AE0186
:103DA0004F5F5F4F0E941D52892B59F584ED99E0BA
:103DB0000E94D25689818430A1F0853028F4813068
:103DC00051F08230D1F40AC0883089F08C3091F003
:103DD000863099F409C08FEC99E011C08BEC99E022
:103DE0000EC086EC99E00BC081EC99E008C08CEB2A
:103DF00099E005C086EB99E002C081EB99E00E9452
:103E0000D25688E999E00E94D25680E062EA79E2CF
:103E10000E94C131813051F0813028F0823049F068
:103E2000833069F409C08EE899E00BC085E899E019
:103E300008C082E799E005C085E699E002C080E607
:103E400099E00E94D25680E068E043E155E20E948A
:103E50008E0F81E060E00E941D210E9453218FEFB0
:103E6000E81609F0DEC082E399E00E94D2568E0186
:103E70000E5F1F4F0E945E2D892B09F449C0C801B7
:103E80000E94C42D8430910509F18530910548F4D4
:103E90008230910599F083309105A0F4019791F556
:103EA00009C08E339105D1F08F33910539F1059713
:103EB00049F510C0C8010E944B1A2AC0C8010E94CF
:103EC000F61926C0C8010E940A1022C0C8010E942B
:103ED000E80F1EC0C8010E9433191AC020E030E06C
:103EE000F901E757F94DD801A20FB31F8C918083D8
:103EF0002F5F3F4F2E33310599F70AC0C8010E944A
:103F0000A00906C080E068E04CEE50E20E948E0FEF
:103F100080919C20882309F0ADCFF8942091E9246A
:103F20003091EA24789480919D2090919E202817CA
:103F3000390739F020939D2030939E20C9010E94BB
:103F40005915F8948091EB249091EC248091EF2402
:103F50009091F024A091F124B091F2248091B020AE
:103F60009091B12078942091EB243091EC248091B1
:103F7000B0209091B1209695879528173907A8F41D
:103F80002091EF243091F0244091F1245091F224BB
:103F90008091A7209091A820A091A920B091AA205B
:103FA000281739074A075B0718F080E00E94980B32
:103FB000F8948091ED249091EE248091F3249091D7
:103FC000F424A091F524B091F6248091B220909130
:103FD000B32078942091ED243091EE248091B2208A
:103FE0009091B3209695879528173907B0F42091C2
:103FF000F3243091F4244091F5245091F6248091DB
:10400000AB209091AC20A091AD20B091AE202817AC
:1040100039074A075B0708F42DCF80E00E948A0A1F
:1040200029CF84E099E00E94D2568E01075C1F4F91
:104030000E945E2D892BE1F3C8010E94C42D8130BE
:10404000910519F0C29749F404C0C8010E944B1AA7
:10405000EFCFC8010E940315EBCF80E068E04CEE83
:1040600050E20E948E0FE4CF1F920F920FB60F9274
:1040700008B60F9209B60F920BB60F92112418BE14
:1040800019BE1BBE2F933F934F935F936F937F9304
:104090008F939F93AF93BF93EF93FF938AE995E23A
:1040A0000E94ED30FF91EF91BF91AF919F918F9161
:1040B0007F916F915F914F913F912F910F900BBE28
:1040C0000F9009BE0F9008BE0F900FBE0F901F906B
:1040D00018951F920F920FB60F9208B60F9209B65D
:1040E0000F920BB60F92112418BE19BE1BBE2F9350
:1040F0003F934F935F936F937F938F939F93AF9370
:10410000BF93EF93FF9388E297E20E94ED30FF9117
:10411000EF91BF91AF919F918F917F916F915F913F
:104120004F913F912F910F900BBE0F9009BE0F90B2
:1041300008BE0F900FBE0F901F9018951F920F9200
:104140000FB60F9208B60F9209B60F920BB60F92E8
:10415000112418BE19BE1BBE2F933F934F935F933C
:104160006F937F938F939F93AF93BF93EF93FF933F
:1041700082E999E20E94ED30FF91EF91BF91AF91FA
:104180009F918F917F916F915F914F913F912F916F
:104190000F900BBE0F9009BE0F9008BE0F900FBE80
:1041A0000F901F9018951F920F920FB60F9208B69E
:1041B0000F9209B60F920BB60F92112418BE19BEBA
:1041C0001BBE2F933F934F935F936F937F938F9378
:1041D0009F93AF93BF93EF93FF9388E796E20E947C
:1041E000ED30FF91EF91BF91AF919F918F917F91B2
:1041F0006F915F914F913F912F910F900BBE0F9058
:1042000009BE0F9008BE0F900FBE0F901F9018951B
:104210000F93DF93CF930F92CDB7DEB72FB72983DC
:10422000F8941BBEFC0108ED04BF608389818FBF39
:104230000F90CF91DF910F910895282F30E0C901A1
:104240008C7F892BE1F4862F8E7FC9F42C5F3F4F42
:10425000613059F481E090E002C0880F991F2A95DF
:10426000E2F7E0E0F7E08683089581E090E002C0A5
:10427000880F991F2A95E2F7E0E0F7E0858308951B
:10428000282F30E0C9018C7F892B61F42C5F3F4FD0
:1042900081E090E002C0880F991F2A95E2F7E0E0E4
:1042A000F7E08783089520E030E0A0E0B7E060E227
:1042B00040E253E017966C9317978CEA9DE0FA0161
:1042C0003197F1F70197D9F72F5F3F4F2A3031052A
:1042D00089F70895482F50E0CA018C7F892B79F522
:1042E0006623B9F44C5F5F4F81E090E09C01042E9F
:1042F00002C0220F331F0A94E2F744505040E0E21C
:10430000F7E0268302C0880F991F4A95E2F7818360
:1043100008956130A1F481E090E09C01042E02C078
:10432000220F331F0A94E2F7E0E2F7E022834C5FAA
:104330005F4F02C0880F991F4A95E2F78583089561
:10434000282F30E0C9018C7F892B11F080E008957F
:104350008091280790E002C0959587952A95E2F70D
:1043600081700895282F30E0C9018C7F892BD1F40A
:10437000862F8E7FB9F4613059F481E090E002C05D
:10438000880F991F2A95E2F7E0E2F7E08583089508
:1043900081E090E002C0880F991F2A95E2F7E0E2E1
:1043A000F7E086830895282F30E0C9018C7F892BA0
:1043B00051F481E090E002C0880F991F2A95E2F73E
:1043C000E0E2F7E087830895A2E0B0E0EAEEF1E2F0
:1043D0000C946058282F30E0C901887F892B19F090
:1043E00020E030E04CC080E1E0E4F6E08683277016
:1043F0003070220F331F220F331F822F8068E0ECB2
:10440000F8E083838091C20887FFFCCF80E1E0EC75
:10441000F8E083838091C20887FFFCCFE0E4F6E0F8
:1044200080E185838683E0ECF8E013828091C20806
:1044300087FFFCCFDE0111969091C308E0ECF8E015
:1044400013828091C20887FFFCCF8091C308119628
:104450009C9311978C9380E1E0E4F6E08583898159
:104460009A819C013F7094FF04C035952795386F61
:1044700002C03595279529833A8329813A81C9015C
:104480002296E2E00C947C58982F8C7F11F580E8FE
:1044900060307807F1F080E1E0E6F6E0868397701F
:1044A000E0ECF9E093838091C20987FFFCCFE0EC58
:1044B000F9E073838091C20987FFFCCFE0ECF9E05B
:1044C00063838091C20987FFFCCF80E1E0E6F6E0DC
:1044D00085830895A0E0B0E0E0E7F2E20C94545840
:1044E000B82EC0E0D0E000E217E066246394A2E0BA
:1044F0007A2EF4E08F2EE8E09E2E70E2E72E73E035
:10450000F72EC12C67E0D62E50E2A52EF801678267
:1045100077828782978288EE93E0F7013197F1F7EF
:104520000197D9F78B2D0E94E421BC0128EE33E0DE
:10453000F7013197F1F721503040D1F781E00E9427
:104540004422C0FF02C0F601A7822196CC33D105D8
:10455000E9F6CDB7DEB7EEE00C9470580F93DF9319
:10456000CF930F92CDB7DEB78FB78983F8941BBE78
:1045700021E089E790E0FC0108ED04BF20838981F8
:104580008FBF0F90CF91DF910F910895A0E0B0E021
:10459000ECECF2E20C945658982E00E090EAA92E2A
:1045A0009FE0B92E80E8C82E8EE3D82EE12C17E0CC
:1045B000F12EB0E28B2E1DC0143610F4BE0103C0E4
:1045C000B5016C1B7D0B80E00E944422892D0E9466
:1045D000E421BC0181E00E944422C6010197F1F769
:1045E0001F5F6496183C41F7F70187820F5F0E3119
:1045F00021F010E0C0E0D0E0DFCFCDB7DEB7ECE0D7
:104600000C947258BC0121E93CE040E050E008C045
:10461000F9012F5F3F4FE491EE23D1F74F5F5F4FDA
:104620004617570721F0F9018491882389F700D0B4
:104630000F928DE89CE0EDB7FEB7818392832383D0
:1046400034830E9414570F900F900F900F9008958D
:10465000A0E0B0E0EEE2F3E20C9457585C016A018E
:104660007B01922EE80183E89FE00E94D25687E604
:104670008883BB27AF2D9E2D8D2D8983CA829B8277
:1046800085E48C83C50160E7A80125E0092D0E941F
:10469000F32FD5011D968C911D978823D1F71E9677
:1046A0008C911E978130B9F01E962C9100D00F92FC
:1046B000EDB7FEB7319686E69FE0ADB7BEB711966F
:1046C0008D939C931297228313820E9414570F900C
:1046D0000F900F900F90DE0131E020E00DC0E5015A
:1046E000ED81FE81E20FF11D908115968C91159759
:1046F000981330E02F5F1196291588F3832F90E0EF
:10470000CDB7DEB7EBE00C947358A0E0B0E0EBE877
:10471000F3E20C9457585C016A017B01922EE80188
:1047200082EA9FE00E94D25687E68883BB27AF2D9E
:104730009E2D8D2D8983CA829B8285E48C83C50141
:1047400060E7A80125E0092D0E94F32FD5011D96F1
:104750008C911D978823D1F71E968C911E978130DE
:10476000B9F01E962C9100D00F92EDB7FEB731969E
:1047700085E89FE0ADB7BEB711968D939C931297D5
:10478000228313820E9414570F900F900F900F9066
:10479000DE0190E00AC0E501ED81FE81E90FF11D27
:1047A000808114968C9314979F5F1196991598F3B6
:1047B000CDB7DEB7EBE00C947358A0E0B0E0E3EEC9
:1047C000F3E20C945958EC016A017B01B22E83ECA0
:1047D0009FE00E94D25682E4D8018C93BB27AF2D74
:1047E0009E2D8D2DF8018183C282B38285E484835E
:1047F000F5E0BF0ECE0160E7A8012B2D00E00E947E
:10480000F32F8D858823E9F78E858130B1F02E85D1
:1048100000D00F92EDB7FEB7319684EA9FE0ADB7B6
:10482000BEB711968D939C931297228313820E9498
:1048300014570F900F900F900F90CDB7DEB7E9E0AF
:104840000C947558A0E0B0E0E8E2F4E20C945758FC
:104850005C016A017B01922EE80182EE9FE00E94DA
:10486000D25687E68883BB27AF2D9E2D8D2D898359
:10487000CA82892D86958B8386E48C83C50160E787
:10488000A80125E0092D0E94F32FD5011D968C91DA
:104890001D978823D1F71E968C911E978130B9F011
:1048A0001E962C9100D00F92EDB7FEB7319685EC95
:1048B0009FE0ADB7BEB711968D939C93129722835C
:1048C00013820E9414570F900F900F900F90DE01EB
:1048D00031E020E00DC0E501ED81FE81E20FF11D28
:1048E000908115968C911597981330E02F5F119653
:1048F000291588F3832F90E0CDB7DEB7EBE00C9459
:104900007358A0E0B0E0E7E8F4E20C9457585C017B
:104910006A017B01922EE80181E090E10E94D2566B
:1049200087E68883BB27AF2D9E2D8D2D8983CA8274
:10493000892D86958B8386E48C83C50160E7A80169
:1049400025E0092D0E94F32FD5011D968C911D970E
:104950008823D1F71E968C911E978130B9F01E9650
:104960002C9100D00F92EDB7FEB7319684EE9FE008
:10497000ADB7BEB711968D939C9312972283138285
:104980000E9414570F900F900F900F90DE0190E04F
:104990000AC0E501ED81FE81E90FF11D80811496C9
:1049A0008C9314979F5F1196991598F3CDB7DEB746
:1049B000EBE00C947358A0E0B0E0E1EEF4E20C946C
:1049C0005958EC016A017B01B22E81E290E10E940C
:1049D000D25682E4D8018C93BB27AF2D9E2D8D2D0E
:1049E000F8018183C2828B2D8695838386E484833C
:1049F000F5E0BF0ECE0160E7A8012B2D00E00E947C
:104A0000F32F8D858823E9F78E858130B1F02E85CF
:104A100000D00F92EDB7FEB7319683E090E1ADB7CD
:104A2000BEB711968D939C931297228313820E9496
:104A300014570F900F900F900F90CDB7DEB7E9E0AD
:104A40000C947558AFE0B0E0E8E2F5E20C945058F1
:104A50007C018B01DB010D900020E9F76D010894CA
:104A6000C108D108C61AD70AB3E0CB16D1040CF49A
:104A7000F2C0FB0181818B8382818C831D82CE01F8
:104A800003968C879D87CE010396BE016F5F7F4F93
:104A900040E150E00E949259D7016C93E981FA817C
:104AA0008C859D85E817F90709F4D5C08081882396
:104AB00009F0D1C097E0C916D1040CF4CCC0D801DC
:104AC00013968C9113978B8314968C9114978C83E7
:104AD00015968C9115978D8316968C918E831F82D7
:104AE000CE010396BE016F5F7F4F40E150E00E9410
:104AF0009259F70161837283E981FA818C859D85E2
:104B0000E817F90709F4A7C08081882309F0A3C03A
:104B100099E0C916D1040CF49EC0D80117968C9167
:104B200017978B8318968C918C831D82CE010396E8
:104B3000BE016F5F7F4F40E150E00E949259F70144
:104B40006383E981FA818C859D85E817F90709F46B
:104B500082C08081882309F07EC0D70111968C9194
:104B6000119712969C9112977C90780E790E760E82
:104B70004801170144245524E9E0AE2EB12CFE0172
:104B80003396EE87FF87CE0101968B87692E32C060
:104B90002C153D050CF05FC0D40119968C91199726
:104BA0008B831A968C918C83E2E0F0E0AE0EBF1EF0
:104BB0001D82CE0103966B85762D40E150E00E9468
:104BC0009259D10114966C93E981FA818E859F8563
:104BD000E817F90709F43FC0A2E0B0E08A0E9B1E77
:104BE0000894211C311C80818823A9F5760E089435
:104BF000411C511CF701808190E095012F5F3F4FD0
:104C0000481659062CF22C153D052CF5F801EA0D35
:104C1000FB1D80818B8381818C831D828E010D5FC2
:104C20001F4FC801BE016F5F7F4F40E150E00E94FF
:104C3000925984E091E0E80EF91ED7016C93E98166
:104C4000FA81E017F10739F08081882321F471940B
:104C5000272D30E002C02FEF3FEFC9012F96E2E190
:104C60000C946C58A0E9B2E0E8E3F6E20C945058DA
:104C7000082FE82EFF24F701E85CF84DE081EE23D1
:104C800009F4CDC2E33071F0E43089F0E23029F468
:104C9000A2E98A2EA9E29A2E0EC0F8E78F2EF6E23C
:104CA0009F2E09C0E8E28E2EE7E29E2E04C07AE92C
:104CB000872E75E2972E83EE97E26DEC73E241E06A
:104CC0000E94BF4C182F882349F080E79CE00E9487
:104CD000D256812F90E00E9402233DC000D00F9257
:104CE0008EE59CE0ADB7BEB711968D939C9312975D
:104CF0001396ED92FC9214970E941457198281E04A
:104D00008A830F900F900F900F90C401602FAE0117
:104D10004F5F5F4F22E000E00E94F32FF401858592
:104D20008823E1F786858130B1F0268500D00F9287
:104D3000EDB7FEB7319680E49CE0ADB7BEB71196F3
:104D40008D939C931297228313820E9414570F9085
:104D50000F900F900F9088E893E120E233E0F90183
:104D60003197F1F70197D9F783E39CE00E94D2567F
:104D70000FEF1FEFCC24DD246624772466E8262E6F
:104D8000312C2C0E3D1E56E8452E51E0552E4C0E72
:104D90005D1EF2013496C357DD4FE883F983CD5889
:104DA000D240CBC00894611C711CF101019000201D
:104DB000E9F7329780818A3009F41082D1018C9111
:104DC0008A3309F0BAC0C201B1010E942225F82E2F
:104DD000C657DD4F8881CA58D240F81619F100D065
:104DE0000F928FEF9BE0EDB7FEB7818392836382D2
:104DF00074820E9414570F920F92EDB7FEB731964E
:104E000084ED9BE0ADB7BEB711968D939C9312973E
:104E1000C657DD4F8881CA58D24082831382F482FC
:104E2000158282C0D20113962C911397222309F088
:104E300053C01196ED90FC9012975701AA0CAB2C21
:104E4000AA1CBB08B194A016B106C1F0CD1491F014
:104E50001695102F0027179507950C0D111DA80109
:104E600060E070E0DC18C4012D2D8E010F5F1F4F34
:104E70000E94DD232FE7D22EDE20CD2C4E2D4F7742
:104E80004C1508F4C42EF2015081252F30E0C35791
:104E9000DD4FA881B981CD58D240E42FF0E035969E
:104EA00081E090E08C0F9D1FE80FF91F2C5F3F4FB2
:104EB000240D351D02C08D918193A217B307D9F738
:104EC000852F90E0840F911D2D2D30E02817390794
:104ED0009CF5D42ED50E30C02130A9F4CD14B9F1F3
:104EE0001695102F0027179507950C0D111DA80179
:104EF00060E070E0DC18C4012D2D8E010F5F1F4FA4
:104F00000E94DD2324C000D000D0EDB7FEB731965B
:104F100082E99BE0ADB7BEB711968D939C93129733
:104F200022831382648275820E941457EDB7FEB704
:104F30003696EDBFFEBF0BC08501C10160E071E098
:104F400043EE57E20E94804F892B09F02BCF83EE6E
:104F500097E240E050E060E070E00E94693C182F6A
:104F6000882349F084E79BE00E94D256812F90E08D
:104F70000E9402232CC187E69BE00E94D256CC24DB
:104F8000CA94DC2C00E010E066247724CE018A5716
:104F90009F4FC157DD4F88839983CF58D24086E811
:104FA000482E81E0582E4C0E5D1ED2011496C55736
:104FB000DD4FA883B983CB58D240FFC00894611C51
:104FC000711CC157DD4FE881F981CF58D240019063
:104FD0000020E9F7329780818A3009F41082CA579D
:104FE000DF4F8881C658D0408A3309F0E6C0C2013D
:104FF000B1010E942225F82EC657DD4F8881CA587C
:10500000D240F81619F100D00F9284E39BE0EDB77F
:10501000FEB781839283638274820E9414570F9239
:105020000F92EDB7FEB7319689E09BE0ADB7BEB702
:1050300011968D939C931297C657DD4F8881CA585D
:10504000D24082831382F4821582AEC0D2011396BD
:105050002C911397222309F065C01196ED90FC90D6
:1050600012975701AA0CAB2CAA1CBB08B194AC1424
:10507000BD0449F1011721F1A6015695542F44278B
:1050800057954795400F511D60E070E0101BC4011B
:10509000212F8E010F5F1F4F0E942823892B81F43F
:1050A00000D00F928CEE9AE0EDB7FEB78183928329
:1050B000C382D4820E9414570F900F900F900F90CC
:1050C0001E2D1F77012F4E2D4F77401708F4042F08
:1050D000D2015C91252F30E0C557DD4FA881B98101
:1050E000CB58D240E42FF0E0359681E090E08C0F71
:1050F0009D1FE80FF91F2C5F3F4F240D351D02C087
:105100008D918193A217B307D9F7852F90E0840F73
:10511000911D212F30E0281739070CF04DC0142FB6
:10512000150F4AC0213079F5011741F1A6015695B6
:10513000542F442757954795400F511D60E070E06C
:10514000101BC401212F8E010F5F1F4F0E942823C7
:10515000892BA1F400D00F928FEC9AE0ADB7BEB7C7
:1051600011968D939C9312971396CD92DC9214977F
:105170000E9414570F900F900F900F908DEC9AE0B3
:105180000E94D25624C000D000D0EDB7FEB73196B1
:105190008CE89AE0ADB7BEB711968D939C931297A9
:1051A00022831382648275820E941457EDB7FEB782
:1051B0003696EDBFFEBF0BC06501C10160E071E036
:1051C00043EE57E20E94804F892B09F0F7CE85E429
:1051D0008983C40160E7AE014F5F5F4F21E000E0CB
:1051E0000E94F32FD4011D968C911D978823D1F72F
:1051F0001E968C911E97813011F11E962C9100D035
:105200000F92EDB7FEB7319681E79AE0ADB7BEB722
:1052100011968D939C931297228313820AC000D01B
:105220000F9286E59AE0EDB7FEB781839283E38221
:10523000F4820E9414570F900F900F900F90C05758
:10524000DD4FE2E10C946C58A0E9B2E0EAE2F9E249
:105250000C945058082FE82EFF24F701E85CF84D15
:10526000E081EE2309F4E1C2E33071F0E43089F02B
:10527000E23029F412E9812E19E2912E0EC0B8E72E
:105280008B2EB6E29B2E09C0A8E28A2EA7E29A2EA8
:1052900004C0FAE98F2EF5E29F2E83EC97E268EDC9
:1052A00073E241E00E94BF4C182F882349F08AE442
:1052B0009FE00E94D256812F90E00E94022351C0AD
:1052C00007FF12C084E0E0E6F6E0868384E690E023
:1052D00020E233E0F9013197F1F70197D9F784E043
:1052E000E0E6F6E085833DC000D00F9289E39FE0C1
:1052F000ADB7BEB711968D939C9312971396ED920E
:10530000FC9214970E941457198281E08A830F90AF
:105310000F900F900F90C401602FAE014F5F5F4F51
:1053200022E000E00E94F32FF40185858823E1F755
:1053300086858130B1F0268500D00F92EDB7FEB79B
:1053400031968BE19FE0ADB7BEB711968D939C93DC
:105350001297228313820E9414570F900F900F9080
:105360000F9088E893E120E233E0F9013197F1F7FB
:105370000197D9F78EE09FE00E94D2560FEF1FEF02
:10538000CC24DD2466247724E6E82E2E312C2C0E46
:105390003D1E76E8472E71E0572E4C0E5D1EF20141
:1053A0003496C357DD4FE883F983CD58D240CBC044
:1053B0000894611C711CF10101900020E9F73297FB
:1053C00080818A3009F41082D1018C918A3309F0EE
:1053D000BAC0C201B1010E942225F82EC657DD4F86
:1053E0008881CA58D240F81619F100D00F928BED7F
:1053F0009EE0EDB7FEB781839283638274820E9440
:1054000014570F920F92EDB7FEB7319680EB9EE0E6
:10541000ADB7BEB711968D939C931297C657DD4FCB
:105420008881CA58D24082831382F482158282C056
:10543000D20113962C911397222309F053C0119691
:10544000ED90FC9012975701AA0CAB2CAA1CBB083C
:10545000B194A016B106C1F0CD1491F01695102F9D
:105460000027179507950C0D111DA80160E070E04D
:10547000DC18C4012D2D8E010F5F1F4F0E94DB240D
:105480004FE7D42EDE20CD2C4E2D4F774C1508F44F
:10549000C42EF2015081252F30E0C357DD4FA88183
:1054A000B981CD58D240E42FF0E0359681E090E00C
:1054B0008C0F9D1FE80FF91F2C5F3F4F240D351DEA
:1054C00002C08D918193A217B307D9F7852F90E081
:1054D000840F911D2D2D30E0281739079CF5D42E0F
:1054E000D50E30C02130A9F4CD14B9F11695102F86
:1054F0000027179507950C0D111DA80160E070E0BD
:10550000DC18C4012D2D8E010F5F1F4F0E94DB247C
:1055100024C000D000D0EDB7FEB7319680E79EE002
:10552000ADB7BEB711968D939C93129722831382C9
:10553000648275820E941457EDB7FEB73696EDBFB0
:10554000FEBF0BC08501C10160E071E043EC57E292
:105550000E94804F892B09F02BCF83EC97E240E02B
:1055600050E060E070E00E94693C182F882349F009
:1055700083E59EE00E94D256812F90E00E94022394
:105580002CC186E49EE00E94D256CC24CA94DC2C26
:1055900000E010E066247724CE018A579F4FC15760
:1055A000DD4F88839983CF58D24026E8422E21E0F0
:1055B000522E4C0E5D1ED2011496C557DD4FA883A6
:1055C000B983CB58D240FFC00894611C711CC157ED
:1055D000DD4FE881F981CF58D24001900020E9F7F2
:1055E000329780818A3009F41082CA57DF4F888150
:1055F000C658D0408A3309F0E6C0C201B1010E940A
:105600002225F82EC657DD4F8881CA58D240F81699
:1056100019F100D00F9284E19EE0EDB7FEB78183CF
:105620009283638274820E9414570F920F92EDB797
:10563000FEB7319689EE9DE0ADB7BEB711968D935A
:105640009C931297C657DD4F8881CA58D2408283F7
:105650001382F4821582AEC0D20113962C91139757
:10566000222309F065C01196ED90FC901297570126
:10567000AA0CAB2CAA1CBB08B194AC14BD0449F114
:10568000011721F1A6015695542F442757954795A8
:10569000400F511D60E070E0101BC401212F8E01EE
:1056A0000F5F1F4F0E942224892B81F400D00F929C
:1056B0008CEC9DE0EDB7FEB781839283C382D482E8
:1056C0000E9414570F900F900F900F901E2D1F7770
:1056D000012F4E2D4F77401708F4042FD2015C9113
:1056E000252F30E0C557DD4FA881B981CB58D24076
:1056F000E42FF0E0359681E090E08C0F9D1FE80FDD
:10570000F91F2C5F3F4F240D351D02C08D918193F1
:10571000A217B307D9F7852F90E0840F911D212F91
:1057200030E0281739070CF04DC0142F150F4AC070
:10573000213079F5011741F1A6015695542F4427E0
:1057400057954795400F511D60E070E0101BC40154
:10575000212F8E010F5F1F4F0E942224892BA1F45D
:1057600000D00F928FEA9DE0ADB7BEB711968D9332
:105770009C9312971396CD92DC9214970E94145723
:105780000F900F900F900F908DEA9DE00E94D256DF
:1057900024C000D000D0EDB7FEB731968DE69DE075
:1057A000ADB7BEB711968D939C9312972283138247
:1057B000648275820E941457EDB7FEB73696EDBF2E
:1057C000FEBF0BC06501C10160E071E043EC57E230
:1057D0000E94804F892B09F0F7CE85E48983C401AC
:1057E00060E7AE014F5F5F4F21E000E00E94F32FC2
:1057F000D4011D968C911D978823D1F71E968C910C
:105800001E97813011F11E962C9100D00F92EDB7AA
:10581000FEB7319682E59DE0ADB7BEB711968D9388
:105820009C931297228313820AC000D00F9287E3C1
:105830009DE0EDB7FEB781839283E382F4820E94FC
:1058400014570F900F900F900F90C057DD4FE2E16B
:105850000C946C580F93DF93CF930F92CDB7DEB7B4
:1058600080E061E00E941D21E0E4F6E088E08183B1
:1058700084E0828380E1818390E2918320E8218328
:105880008583E0E6F6E0818391832183858380EB45
:1058900080938006E0E8F6E01482E0EEF6E0918383
:1058A00080E48183218396838583268380EF8093A0
:1058B0000007E0E0F7E0848380E060E00E946A2176
:1058C00081E060E00E946A2182E060E00E946A213B
:1058D00083E060E00E946A21E0E5F0E087E48283F3
:1058E00084EC858388E1809350008091510084FF8F
:1058F000FCCF8FB78983F8941BBE24E080E490E04E
:10590000FC0108ED04BF208389818FBF88EE93E0FE
:1059100020E233E0F9013197F1F70197D9F7E0E49C
:10592000FAE084E08093400A8FE39CE986A397A382
:1059300082E0868388E58093C00880E1E0E4F6E0B9
:1059400086838AEAE0ECF8E083838091C20887FFCF
:10595000FCCF80EAE0ECF8E083838091C20887FF07
:10596000FCCFE0E4F6E080E1858386838AECE0EC1E
:10597000F8E083838091C20887FFFCCF80EAE0ECE7
:10598000F8E083838091C20887FFFCCFE0E4F6E073
:1059900080E18583868380EEE0ECF8E0838380916C
:1059A000C20887FFFCCFE0ECF8E013828091C208C8
:1059B00087FFFCCFE0E4F6E080E18583868380E822
:1059C000E0ECF8E083838091C20887FFFCCF80E1A0
:1059D000E0ECF8E083838091C20887FFFCCF90E180
:1059E000E0E4F6E0958388E58093C009E0E6F6E020
:1059F0009683E0ECF9E093838091C20987FFFCCFA6
:105A0000E0ECF9E013828091C20987FFFCCF8FE1BF
:105A1000E0ECF9E083838091C20987FFFCCFE0E6E8
:105A2000F6E080E1858386838CE0E0ECF9E0838317
:105A30008091C20987FFFCCFE0ECF9E013828091EE
:105A4000C20987FFFCCF84E0E0ECF9E0838380911A
:105A5000C20987FFFCCF80E1E0E6F6E085830E9483
:105A60003F2D0E945B550E94E42E87E0E0EAF0E0C3
:105A7000828378940F90CF91DF910F9108951092C7
:105A800060251092612510925E2510925F2510927C
:105A900062251092632510921C2510921B251092EE
:105AA0001D25E0EAF8E08BE4868380EA878380E1C5
:105AB000838383E0858388E1848308952091622530
:105AC00030916325C90108952091602530916125A9
:105AD0008091622590916325892BD1F3E091662511
